{
  "_format": "hh-sol-artifact-1",
  "contractName": "ProduceTracker",
  "sourceName": "contracts/ProduceTracker.sol",
  "abi": [
    {
      "anonymous": false,
      "inputs": [
        {
          "indexed": true,
          "internalType": "uint256",
          "name": "produceId",
          "type": "uint256"
        },
        {
          "indexed": false,
          "internalType": "address",
          "name": "from",
          "type": "address"
        },
        {
          "indexed": false,
          "internalType": "address",
          "name": "to",
          "type": "address"
        }
      ],
      "name": "HolderTransferred",
      "type": "event"
    },
    {
      "anonymous": false,
      "inputs": [
        {
          "indexed": true,
          "internalType": "uint256",
          "name": "produceId",
          "type": "uint256"
        },
        {
          "indexed": true,
          "internalType": "address",
          "name": "farmer",
          "type": "address"
        },
        {
          "indexed": false,
          "internalType": "uint256",
          "name": "quantity",
          "type": "uint256"
        },
        {
          "indexed": false,
          "internalType": "uint256",
          "name": "timestamp",
          "type": "uint256"
        }
      ],
      "name": "ProduceRegistered",
      "type": "event"
    },
    {
      "anonymous": false,
      "inputs": [
        {
          "indexed": true,
          "internalType": "uint256",
          "name": "produceId",
          "type": "uint256"
        },
        {
          "indexed": false,
          "internalType": "enum ProduceTracker.Status",
          "name": "newStatus",
          "type": "uint8"
        },
        {
          "indexed": false,
          "internalType": "uint256",
          "name": "timestamp",
          "type": "uint256"
        }
      ],
      "name": "StatusUpdated",
      "type": "event"
    },
    {
      "inputs": [],
      "name": "numberOfProduces",
      "outputs": [
        {
          "internalType": "uint256",
          "name": "",
          "type": "uint256"
        }
      ],
      "stateMutability": "view",
      "type": "function"
    },
    {
      "inputs": [
        {
          "internalType": "uint256",
          "name": "",
          "type": "uint256"
        }
      ],
      "name": "produceIds",
      "outputs": [
        {
          "internalType": "uint256",
          "name": "",
          "type": "uint256"
        }
      ],
      "stateMutability": "view",
      "type": "function"
    },
    {
      "inputs": [
        {
          "internalType": "uint256",
          "name": "",
          "type": "uint256"
        }
      ],
      "name": "produces",
      "outputs": [
        {
          "internalType": "uint256",
          "name": "produceCode",
          "type": "uint256"
        },
        {
          "internalType": "uint256",
          "name": "quantity",
          "type": "uint256"
        },
        {
          "internalType": "uint256",
          "name": "timestamp",
          "type": "uint256"
        },
        {
          "internalType": "address",
          "name": "farmer",
          "type": "address"
        },
        {
          "internalType": "address",
          "name": "endUser",
          "type": "address"
        },
        {
          "internalType": "address",
          "name": "currentHolder",
          "type": "address"
        },
        {
          "internalType": "enum ProduceTracker.Status",
          "name": "status",
          "type": "uint8"
        },
        {
          "internalType": "uint8",
          "name": "qualityRating",
          "type": "uint8"
        }
      ],
      "stateMutability": "view",
      "type": "function"
    },
    {
      "inputs": [
        {
          "internalType": "uint256",
          "name": "_produceId",
          "type": "uint256"
        },
        {
          "internalType": "uint256",
          "name": "_produceCode",
          "type": "uint256"
        },
        {
          "internalType": "uint256",
          "name": "_quantity",
          "type": "uint256"
        },
        {
          "internalType": "address",
          "name": "_endUser",
          "type": "address"
        },
        {
          "internalType": "uint8",
          "name": "_qualityRating",
          "type": "uint8"
        }
      ],
      "name": "registerProduce",
      "outputs": [],
      "stateMutability": "nonpayable",
      "type": "function"
    },
    {
      "inputs": [
        {
          "internalType": "address",
          "name": "to",
          "type": "address"
        },
        {
          "internalType": "uint256",
          "name": "_produceId",
          "type": "uint256"
        }
      ],
      "name": "transferHolder",
      "outputs": [],
      "stateMutability": "nonpayable",
      "type": "function"
    },
    {
      "inputs": [
        {
          "internalType": "uint256",
          "name": "_produceId",
          "type": "uint256"
        },
        {
          "internalType": "enum ProduceTracker.Status",
          "name": "_newStatus",
          "type": "uint8"
        }
      ],
      "name": "updateStatus",
      "outputs": [],
      "stateMutability": "nonpayable",
      "type": "function"
    }
  ],
  "bytecode": "0x6080604052348015600f57600080fd5b506110ac8061001f6000396000f3fe608060405234801561001057600080fd5b50600436106100625760003560e01c8063153a45c51461006757806315fa69d8146100835780633a1b3d311461009f57806356cd8306146100bb578063cfd441c2146100f2578063ebf26ba614610110575b600080fd5b610081600480360381019061007c9190610a61565b610140565b005b61009d60048036038101906100989190610adc565b6104d5565b005b6100b960048036038101906100b49190610b41565b6106d3565b005b6100d560048036038101906100d09190610b81565b6108a3565b6040516100e9989796959493929190610c52565b60405180910390f35b6100fa610965565b6040516101079190610cd0565b60405180910390f35b61012a60048036038101906101259190610b81565b61096b565b6040516101379190610cd0565b60405180910390f35b84826000806000848152602001908152602001600020600201541461019a576040517f08c379a000000000000000000000000000000000000000000000000000000000815260040161019190610d48565b60405180910390fd5b8073ffffffffffffffffffffffffffffffffffffffff163373ffffffffffffffffffffffffffffffffffffffff1603610208576040517f08c379a00000000000000000000000000000000000000000000000000000000081526004016101ff90610db4565b60405180910390fd5b60648360ff16111561024f576040517f08c379a000000000000000000000000000000000000000000000000000000000815260040161024690610e20565b60405180910390fd5b6040518061010001604052808781526020018681526020014281526020013373ffffffffffffffffffffffffffffffffffffffff1681526020018573ffffffffffffffffffffffffffffffffffffffff1681526020013373ffffffffffffffffffffffffffffffffffffffff168152602001600060028111156102d5576102d4610bcc565b5b81526020018460ff1681525060008089815260200190815260200160002060008201518160000155602082015181600101556040820151816002015560608201518160030160006101000a81548173ffffffffffffffffffffffffffffffffffffffff021916908373ffffffffffffffffffffffffffffffffffffffff16021790555060808201518160040160006101000a81548173ffffffffffffffffffffffffffffffffffffffff021916908373ffffffffffffffffffffffffffffffffffffffff16021790555060a08201518160050160006101000a81548173ffffffffffffffffffffffffffffffffffffffff021916908373ffffffffffffffffffffffffffffffffffffffff16021790555060c08201518160050160146101000a81548160ff0219169083600281111561041157610410610bcc565b5b021790555060e08201518160050160156101000a81548160ff021916908360ff16021790555090505060018790806001815401808255809150506001900390600052602060002001600090919091909150556002600081548092919061047690610e6f565b91905055503373ffffffffffffffffffffffffffffffffffffffff16877f43dcd0acbd086ae8429a7a90e96d551be92c47768f0c5a737a6ec29fb893313287426040516104c4929190610eb7565b60405180910390a350505050505050565b806000806000838152602001908152602001600020600201540361052e576040517f08c379a000000000000000000000000000000000000000000000000000000000815260040161052590610f2c565b60405180910390fd5b3373ffffffffffffffffffffffffffffffffffffffff1660008083815260200190815260200160002060050160009054906101000a900473ffffffffffffffffffffffffffffffffffffffff1673ffffffffffffffffffffffffffffffffffffffff16146105d1576040517f08c379a00000000000000000000000000000000000000000000000000000000081526004016105c890610f98565b60405180910390fd5b600073ffffffffffffffffffffffffffffffffffffffff168373ffffffffffffffffffffffffffffffffffffffff1603610640576040517f08c379a000000000000000000000000000000000000000000000000000000000815260040161063790611004565b60405180910390fd5b8260008084815260200190815260200160002060050160006101000a81548173ffffffffffffffffffffffffffffffffffffffff021916908373ffffffffffffffffffffffffffffffffffffffff160217905550817fa7cdc26e996582353a675ccc38a6dd64a809afcbd854805ffbdaf1fa225c016d33856040516106c6929190611024565b60405180910390a2505050565b816000806000838152602001908152602001600020600201540361072c576040517f08c379a000000000000000000000000000000000000000000000000000000000815260040161072390610f2c565b60405180910390fd5b3373ffffffffffffffffffffffffffffffffffffffff1660008083815260200190815260200160002060050160009054906101000a900473ffffffffffffffffffffffffffffffffffffffff1673ffffffffffffffffffffffffffffffffffffffff16146107cf576040517f08c379a00000000000000000000000000000000000000000000000000000000081526004016107c690610f98565b60405180910390fd5b60008060008581526020019081526020016000206002015403610827576040517f08c379a000000000000000000000000000000000000000000000000000000000815260040161081e90610f2c565b60405180910390fd5b8160008085815260200190815260200160002060050160146101000a81548160ff0219169083600281111561085f5761085e610bcc565b5b0217905550827f4f4cecb8d0fd736cdab2e7eb7cfce8ea973e74f91fbcdfd5d02f6707ebd6c72c834260405161089692919061104d565b60405180910390a2505050565b60006020528060005260406000206000915090508060000154908060010154908060020154908060030160009054906101000a900473ffffffffffffffffffffffffffffffffffffffff16908060040160009054906101000a900473ffffffffffffffffffffffffffffffffffffffff16908060050160009054906101000a900473ffffffffffffffffffffffffffffffffffffffff16908060050160149054906101000a900460ff16908060050160159054906101000a900460ff16905088565b60025481565b6001818154811061097b57600080fd5b906000526020600020016000915090505481565b600080fd5b6000819050919050565b6109a781610994565b81146109b257600080fd5b50565b6000813590506109c48161099e565b92915050565b600073ffffffffffffffffffffffffffffffffffffffff82169050919050565b60006109f5826109ca565b9050919050565b610a05816109ea565b8114610a1057600080fd5b50565b600081359050610a22816109fc565b92915050565b600060ff82169050919050565b610a3e81610a28565b8114610a4957600080fd5b50565b600081359050610a5b81610a35565b92915050565b600080600080600060a08688031215610a7d57610a7c61098f565b5b6000610a8b888289016109b5565b9550506020610a9c888289016109b5565b9450506040610aad888289016109b5565b9350506060610abe88828901610a13565b9250506080610acf88828901610a4c565b9150509295509295909350565b60008060408385031215610af357610af261098f565b5b6000610b0185828601610a13565b9250506020610b12858286016109b5565b9150509250929050565b60038110610b2957600080fd5b50565b600081359050610b3b81610b1c565b92915050565b60008060408385031215610b5857610b5761098f565b5b6000610b66858286016109b5565b9250506020610b7785828601610b2c565b9150509250929050565b600060208284031215610b9757610b9661098f565b5b6000610ba5848285016109b5565b91505092915050565b610bb781610994565b82525050565b610bc6816109ea565b82525050565b7f4e487b7100000000000000000000000000000000000000000000000000000000600052602160045260246000fd5b60038110610c0c57610c0b610bcc565b5b50565b6000819050610c1d82610bfb565b919050565b6000610c2d82610c0f565b9050919050565b610c3d81610c22565b82525050565b610c4c81610a28565b82525050565b600061010082019050610c68600083018b610bae565b610c75602083018a610bae565b610c826040830189610bae565b610c8f6060830188610bbd565b610c9c6080830187610bbd565b610ca960a0830186610bbd565b610cb660c0830185610c34565b610cc360e0830184610c43565b9998505050505050505050565b6000602082019050610ce56000830184610bae565b92915050565b600082825260208201905092915050565b7f416c726561647920726567697374657265640000000000000000000000000000600082015250565b6000610d32601283610ceb565b9150610d3d82610cfc565b602082019050919050565b60006020820190508181036000830152610d6181610d25565b9050919050565b7f53616d652061646472657373206173206f776e65720000000000000000000000600082015250565b6000610d9e601583610ceb565b9150610da982610d68565b602082019050919050565b60006020820190508181036000830152610dcd81610d91565b9050919050565b7f496e76616c6964207175616c69747920726174696e6700000000000000000000600082015250565b6000610e0a601683610ceb565b9150610e1582610dd4565b602082019050919050565b60006020820190508181036000830152610e3981610dfd565b9050919050565b7f4e487b7100000000000000000000000000000000000000000000000000000000600052601160045260246000fd5b6000610e7a82610994565b91507fffffffffffffffffffffffffffffffffffffffffffffffffffffffffffffffff8203610eac57610eab610e40565b5b600182019050919050565b6000604082019050610ecc6000830185610bae565b610ed96020830184610bae565b9392505050565b7f50726f64756365206e6f74207265676973746572656400000000000000000000600082015250565b6000610f16601683610ceb565b9150610f2182610ee0565b602082019050919050565b60006020820190508181036000830152610f4581610f09565b9050919050565b7f4e6f7420617574686f72697a6564000000000000000000000000000000000000600082015250565b6000610f82600e83610ceb565b9150610f8d82610f4c565b602082019050919050565b60006020820190508181036000830152610fb181610f75565b9050919050565b7f496e76616c696420616464726573730000000000000000000000000000000000600082015250565b6000610fee600f83610ceb565b9150610ff982610fb8565b602082019050919050565b6000602082019050818103600083015261101d81610fe1565b9050919050565b60006040820190506110396000830185610bbd565b6110466020830184610bbd565b9392505050565b60006040820190506110626000830185610c34565b61106f6020830184610bae565b939250505056fea2646970667358221220e9937f0af70efcbfed99af34367164203b6b7887b8cd5ad8a77a3311ee320fcc64736f6c634300081c0033",
  "linkReferences": {},
  "deployedLinkReferences": {}
}